:1000000001C0C7C0112480914000882369F0282FC7
:1000100030E083FD03C02D7F232B31F4809340001B
:100020008CBB80E09ED0ECC0A895229A2A9A1092B0
:100030000102809182128370813039F58CE590E065
:10004000809308089093090881E080930B0883E06F
:10005000809307081092050880EC809306088BE0D7
:1000600080D00DE983E0D82E70D0813489F46DD032
:10007000182F80D082E0123821F089E0113809F081
:1000800083E05CD080E15AD0EFCF83E790E0D8CF17
:10009000823419F484E176D0F5CF853411F485E00B
:1000A000FACF853531F451D0C82F4FD0D82F62D038
:1000B000E9CF863521F484E065D080E0E2CF843654
:1000C000B9F443D042D0182F40D0863479F4D058B8
:1000D0003CD0888321961150D9F74CD004BFD092E0
:1000E0000010809102108370E1F7CCCFDC5EF0CF7E
:1000F000843791F42AD029D0182F27D0F82E3AD05F
:1001000086E4F81207C0D0588881219617D0115084
:10011000D9F7B8CFDC5EF8CF853751F42BD080917A
:1001200000110CD08091011109D080910211A9CF4A
:10013000813509F0BCCF81E014D0B9CF909104088B
:1001400095FFFCCF8093020808958091040887FFF3
:10015000FCCF909101088091000892FD01C0A89504
:1001600008959091010190FDFCCF98ED94BF80938C
:1001700000010895EADF803219F081E0F2DFFFCF5D
:1001800084E1DCCFCF93C82FE0DFC150E9F7CF91F6
:10019000F1CF683048F48DE984BF609300108091FE
:0E01A00002108370E1F70895FC01408308957A
:0201FE000209F4
:00000001FF
